:1000000000308A0018280000223084008313000882
:10001000031917280630F800F701F70B0D28F80B25
:100020000C287B30F700F70B1328800B0A280800F8
:1000300003081F398300FF30A00083161F149F148C
:100040001F159F1107309C0083133F30850000303F
:1000500087008312A000831688008312A0008316F5
:100060008701831287018316880183128801831612
:1000700005168312A101051AA10A210BA6288316D1
:1000800088018030831288003230A2000420831659
:100090008801831288013230A2000420831688016F
:1000A0001030831288003230A200042083168801A9
:1000B000831288013230A20004200030A000831691
:1000C00087018030831287003230A2000420003084
:1000D000A00083168701831287013230A20004201A
:1000E0000030A00083168701203083128700323051
:1000F000A20004200030A00083168701831287012C
:100100003230A20004200030A00083168701103096
:10011000831287003230A20004200030A000831632
:100120008701831287013230A200042083168801E0
:100130000430831288003230A20004208316880124
:10014000831288013230A20004200C298316880112
:100150008030831288003230A20004208316880188
:10016000831288013230A20004200030A0008316E0
:1001700087018030831287003230A20004200030D3
:10018000A00083168701831287013230A200042069
:100190000030A000831687011030831287003230B0
:1001A000A20004200030A00083168701831287017B
:1001B0003230A20004208316880110308312880098
:1001C0003230A20004208316880183128801323065
:1001D000A20004200030A000831687012030831283
:1001E00087003230A20004200030A000831687016F
:1001F000831287013230A200042083168801043064
:10020000831288003230A2000420831688018312F2
:0C02100088013230A2000420372863006F
:02400E00713F00
:00000001FF
;PIC16F877A
;CRC=5E01  CREATED="19-dic.-22 18:36"
