:1000000000308A0018280000213084008313000883
:10001000031917280630F800F701F70B0D28F80B25
:100020000C287B30F700F70B1328800B0A280800F8
:1000300003081F398300FF30A00083161F149F148C
:100040001F159F1107309C00831300308800870024
:100050008312A0008316880183128801A0008316F2
:1000600087018312870183168801803083128800FC
:100070003230A100042083168801831288013230B7
:10008000A1000420831688011030831288003230CA
:10009000A100042083168801831288013230A10058
:1000A00004200030A000831687018030831287006F
:1000B0003230A10004200030A00083168701831293
:1000C00087013230A10004200030A0008316870190
:1000D0002030831287003230A10004200030A000BD
:1000E00083168701831287013230A1000420332850
:0200F0006300AB
:02400E00713F00
:00000001FF
;PIC16F877A
;CRC=7375  CREATED="06-ene.-23 18:12"
