:100000000B308A00882B00008E30F7006A08F80059
:100010006908F900FA01F808031D18287908F800A2
:10002000F9010830F702F808031D1828F701202805
:100030000310F81B1F28F90DF80DF7031828F81303
:1000400008006608ED006A08ED06ED1F2C28031174
:100050000310E61B03145F286608ED006908EE0034
:100060006508EE0203193A28ED1F5F280308013ADC
:1000700083005F286A08EE006608EE02031946282E
:10008000ED1F5F280308013A83005F286B08EE002C
:100090006708EE0203195228ED1F5F280308013A92
:1000A00083005F286C08EE006808EE0203195E28E2
:1000B000ED1F5F280308013A83005F280310080042
:1000C0005E0803192529EA00620803192529EA02B6
:1000D000031C6F287F30EA07031825297528813013
:1000E000EA02031C2529031925296A08F700F801EB
:1000F000F901FA01E9015F08E800E8176008E70084
:100100006108E6001930EA006508E602031898283D
:100110000130E70203189828E80203189828E9023A
:1001200003189828E90AE80AE70A6508E607CA28D2
:100130006408E7020318B3280130E8020318B32863
:10014000E9020318B328E90AE80A6408E707650822
:10015000E607031CCA28E70A031DCA28E80A031D8C
:10016000CA28E90ACA2863088038E8020318C9289F
:100170000130E9020318C928E90A63088038E80752
:100180006408E707031CA728E80A031DA728E90A53
:10019000A7287A14EA0BCD28D8280310E60DE70D1E
:1001A000E80DE90D0310FA0DF90DF80DEB0D84289B
:1001B0006B1CE0280310F80CF90CFA0CEB0CE3288C
:1001C000F70303192529EB1B0C290310E60DE70D96
:1001D000E80DE90D6508E6020318F8280130E7028A
:1001E0000318F828E8020318F828E902031C1B2961
:1001F0006408E702031803290130E8020318032901
:10020000E902031C1B2963088038E80203180C2943
:100210000130E902031C1B29FA0A031D1B29F90AF4
:10022000031D1B29F80A031D1B29F70A0319252999
:10023000F80CF90CFA0C5F08EA006308EA06EA1FFA
:100240002329F8172929F8132929F701F801F901B9
:10025000FA0108008E30F7006508F7026608F90019
:100260006708F800F917F708031941290310F9087E
:10027000031D3D29F80803194129F90CF80CF70B67
:100280003629E61F4829F809F909F80A0319F90A75
:10029000080065080319B929ED0069080319B9298F
:1002A000ED0703185A297F30ED02031CB929031901
:1002B000B9295E298130ED070318B9296D08F700C7
:1002C000F801F901FA016608F100F1176708F0007A
:1002D0006808EF001830ED00EE016F1C87296C08EC
:1002E000FA07031C7929F90A031D7929F80A031969
:1002F000EE176B08F907031C8029F80A0319EE179B
:100300006A08E700E7176708F8070318EE17EE0D0D
:10031000F80CF90CFA0CF10CF00CEF0C0310ED0BCF
:100320006C290130F7070318B929F81B9E29F10D34
:10033000FA0DF90DF80DF7030319B929F11FAF29CB
:10034000FA0A031DAF29F90A031DAF29F80A031D94
:10035000AF29F80CF90CFA0CF70A0319B929660849
:10036000EE006A08EE06EE1FB729F817BD29F8134C
:10037000BD29F701F801F901FA010800803083185E
:10038000EE068316A201A30183126A088316A10058
:1003900083126E088316A106831269080319D42AF2
:1003A0008316A000F70083126D080319E12A831653
:1003B000A00203196E2A031C202A83126E088316DA
:1003C000A600A61783126F088316A5007008A40064
:1003D000A3010310A60CA50CA40CA30CA00BE829E8
:1003E000A11FF5292214FA2A2210201022166C309F
:1003F000840083130F2B2212A11B082A201C132A0E
:10040000A60CA50CA40CA30CF70A0319F52A132AB1
:10041000A61B162A0310A30DA40DA50DA60DF70308
:100420000319F52A082A2217942A221383126A082C
:100430008316A100A11F1E2AA617EE2AA613EE2AD4
:1004400083126D088316A000F700831269088316D3
:10045000A00283126A088316A600A61783126B08EF
:100460008316A50083126C088316A400A301031051
:10047000A60CA50CA40CA30CA00B362AA11F432A82
:10048000A214FA2AA2102010A2167030840083133E
:100490000F2BA212A11B562A201C612AA60CA50C08
:1004A000A40CA30CF70A0319F52A612AA61B642AD7
:1004B0000310A30DA40DA50DA60DF7030319F52A2E
:1004C000562AA217942AA21383126E088316A1003B
:1004D000A11F6C2AA617EE2AA613EE2A83126E0815
:1004E0008316A600A61783126F088316A50070084E
:1004F000A400A11F7F2AA6132215FA2A2211A30104
:1005000020106C30840083130F2BA11BAA2A8312A6
:100510006A088316A100201C942AA60CA50CA40C22
:10052000A30CF70A0319F52AA31FA52AA40A031D81
:10053000A52AA50A031DA52AA60A031DA52AA60CFD
:10054000A50CA40CF70A0319F52A221B152AA21BD5
:10055000632ACD2A8030A606A61FB42AFA2A83125F
:100560006E088316A100C32A83126A088316A100AD
:10057000A608031DC32AA508031DC32AA408031D3A
:10058000C32AF701EE2AA61BCD2A0310A30DA40D42
:10059000A50DA60DF70BC32AF52AA11FD12AA61770
:1005A000EE2AA613EE2A83126D08F7006E08831652
:1005B000A60083126F088316A5007008A400EE2A17
:1005C00083126908F7006A088316A60083126B0875
:1005D0008316A50083126C088316A4002608F80071
:1005E0002508F9002408FA002D2BF701F801F9017C
:1005F000FA012D2BA301A409A509A609A309A30AA1
:10060000031D082BA40A031D082BA50A0319A60A1B
:100610002218F429A218422A22197E2AAF2A000899
:10062000A407031C192BA50A031D192BA60A0319DD
:10063000201484030008A507031C212BA60A031914
:10064000201484030008801F803AA6070318201492
:10065000221AFB29A21A492A852A8312080064104B
:100660005808DD005708DC005608DB005508DA00A2
:100670005808E8005708E7005608E6005508E50066
:10068000EC01EB01EA01E9012120031C4B2B64146E
:100690005B08803ADB005D08E8005C08E7005B0867
:1006A000E6005A08E500EC01EB01EA018E30E900B2
:1006B000212003185D2B031D742B5D08E8005C08E6
:1006C000E7005B08E6005A08E5002A217908EA00FD
:1006D0007808E90004207A08E1007908E000780849
:1006E000DF007708DE00312C5D08E8005C08E700D9
:1006F0005B08E6005A08E5008030EC009630EB001D
:100700001830EA009630E9002120031C292C5D08EE
:10071000E8005C08E7005B08E6005A08E500EC0129
:10072000EB01EA017030E90049217A08E800790814
:10073000E7007808E6007708E5002A217908E30059
:100740007808E2005D08E8005C08E7005B08E60066
:100750005A08E500EC01EB01EA017030E90049219B
:100760007A08E8007908E7007808E6007708E500ED
:100770006308EA006208E900042083146808EC00BA
:100780006708EB006608EA006508E9007A08F000EF
:100790007908EF007808EE007708ED00BE21E80147
:1007A000E701E6018E30E5007A08EC007908EB00FD
:1007B0007808EA007708E90049217A08DD0079081D
:1007C000DC007808DB007708DA006308EA006208DA
:1007D000E9000420E801E701E6018E30E5007A082F
:1007E000EC007908EB007808EA007708E900492175
:1007F0007A08E1007908E0007808DF007708DE0079
:100800005D08E8005C08E7005B08E6005A08E500C0
:100810002A217908EA007808E90004208310610899
:10082000EC006008EB005F08EA005E08E9007A0867
:10083000F0007908EF007808EE007708ED00BE219F
:100840007A08E1007908E0007808DF007708DE0028
:10085000312C5D08E1005C08E0005B08DF005A080D
:10086000DE005D08E8005C08E7005B08E6005A0867
:10087000E5002A217908EA007808E90004208314B9
:100880005D08EC005C08EB005B08EA005A08E90030
:100890007A08F0007908EF007808EE007708ED009C
:1008A000BE217A08DD007908DC007808DB007708D3
:1008B000DA00641C5E2C5F08803ADF005D08E80007
:1008C0005C08E7005B08E6005A08E500EC01EB0174
:1008D000EA01E90121200319A42C641C892CD90800
:1008E000031D892C83146108EC006008EB005F088D
:1008F000EA005E08E900F001EF01EE017F30ED0053
:10090000BE217A08E1007908E0007808DF00770866
:10091000DE006418A42C590BA42C83106108EC0091
:100920006008EB005F08EA005E08E900F001EF01F3
:10093000EE017F30ED00BE217A08E1007908E00089
:100940007808DF007708DE005808E8005708E7005D
:100950005608E6005508E500EC01EB01EA01E90163
:100960002120031DB72CE101E001DF01DE015E085B
:10097000F7005F08F8006008F9006108FA00080055
:100980004808E8004708E7004608E6004508E50093
:10099000EC01EB01EA01E901212003197B2D440858
:1009A000E1004308E0004208DF004108DE0048089B
:1009B000E5004708E4004608E3004508E20060203F
:1009C0007A08D0007908CF007808CE007708CD00EB
:1009D0005008E8004F08E7004E08E6004D08E50023
:1009E000EC01EB01EA01E9012120031C242D44085C
:1009F000E1004308E0004208DF004108DE0048084B
:100A0000E5004708E4004608E3004508E2006020EE
:100A10007A08D0007908CF007808CE007708CD009A
:100A20005008D4004F08D3004E08D2004D08D10022
:100A30005408D8005308D7005208D6005108D500F2
:100A40000130D9002F234F2D4408E1004308E00076
:100A50004208DF004108DE004808E5004708E400DE
:100A60004608E3004508E20060207A08D0007908D3
:100A7000CF007808CE007708CD005008D4004F088A
:100A8000D3004E08D2004D08D1005408D8005308B6
:100A9000D7005208D6005108D500D9012F237A0873
:100AA000CC007908CB007808CA007708C9004C0848
:100AB000E8004B08E7004A08E6004908E500480856
:100AC000EC004708EB004608EA004508E900492128
:100AD00083144408EC004308EB004208EA00410894
:100AE000E9007A08F0007908EF007808EE0077084E
:100AF000ED00BE217B2D08008E30F7005C08F80069
:100B00005B08F900FA01DC1F8A2DF809F909F90AD6
:100B10000319F80AF808031D972D7908F800F90160
:100B20000830F702F808031D972DF701A02D0310D8
:100B3000F81B9E2DF90DF80DF703972DDC1FF81308
:100B400008004808CC004708CB004608CA00450802
:100B5000C9004C08E8004B08E7004A08E6004908CD
:100B6000E500EC01EB01EA017F30E90021200319E7
:100B7000382FDB014930DA005A08840083135B18F0
:100B800083177E30800083144C08EC004B08EB0088
:100B90004A08EA004908E900F001EF01EE017F3060
:100BA000ED00BE217A08DD007908DC007808DB0062
:100BB0007708DA0083104C08EC004B08EB004A0879
:100BC000EA004908E900F001EF01EE017F30ED0095
:100BD000BE215D08E1005C08E0005B08DF005A0808
:100BE000DE007A08E5007908E4007808E300770879
:100BF000E20060207A08CC007908CB007808CA00AF
:100C00007708C9004C08E8004B08E7004A08E600EE
:100C10004908E5004C08EC004B08EB004A08EA00E4
:100C20004908E90049217A08D8007908D7007808EE
:100C3000D6007708D5009930E8004730E7008A30C1
:100C4000E6007F30E5005808EC005708EB00560836
:100C5000EA005508E90049217A08DD007908DC003E
:100C60007808DB007708DA0083107A08EC0079084E
:100C7000EB007808EA007708E900F001EF01EE01E7
:100C80008030ED00BE217A08D0007908CF007808C6
:100C9000CE007708CD004C30E800F330E7003A3062
:100CA000E6007B30E5005808EC005708EB005608DA
:100CB000EA005508E90049217A08DD007908DC00DE
:100CC0007808DB007708DA0083107A08EC007908EE
:100CD000EB007808EA007708E9002B30F0009D303F
:100CE000EF00DF30EE007E30ED00BE217A08D40048
:100CF0007908D3007808D2007708D1005408E800BA
:100D00005308E7005208E6005108E5005808EC00D7
:100D10005708EB005608EA005508E90049217A080F
:100D2000DD007908DC007808DB007708DA00831042
:100D30007A08EC007908EB007808EA007708E90007
:100D4000F001EF01EE017F30ED00BE217A08D40002
:100D50007908D3007808D2007708D1004C08E80061
:100D60004B08E7004A08E6004908E5005008EC0097
:100D70004F08EB004E08EA004D08E90049217A08C7
:100D8000DD007908DC007808DB007708DA007A08F3
:100D9000E1007908E0007808DF007708DE005408F9
:100DA000E5005308E4005208E3005108E200602027
:100DB0007A08D0007908CF007808CE007708CD00F7
:100DC000DB014530DA005A08840083135B1883176F
:100DD0007E300002D900D91FFE2E5908003CDC01EC
:100DE000DB00DB1BDC037C257708D1007808803A28
:100DF000D2007908D3007A08D4000C2FDC015908FE
:100E0000DB00DB1BDC037C257A08D4007908D300E7
:100E10007808D2007708D1005408E8005308E700AA
:100E20005208E6005108E5001830EC007230EB0083
:100E30003130EA007E30E900492183105008EC008F
:100E40004F08EB004E08EA004D08E9007A08F00070
:100E50007908EF007808EE007708ED00BE217A08E7
:100E6000D0007908CF007808CE007708CD003C2F5D
:100E7000D001CF01CE01CD014D08F7004E08F8009A
:100E80004F08F9005008FA0008003708F801360248
:100E900003184D2F3608F700592FF7010830B80016
:100EA000B60DF70D370877020318F700F80DB80BE9
:040EB000502F0800B7
:101000004808E8004708E7004608E6004508E5000C
:101010003B30EC00AA30EB003830EA007F30E900CA
:101020008A1149218A157A08E8007908E7007808CA
:10103000E6007708E5008A112A218A157808D5008C
:1010400056104808CC004708CB004608CA0045089F
:10105000C9004808E8004708E7004608E6004508D8
:10106000E500EC01EB01EA01E9018A1121208A1572
:10107000031C40285614D509D50A4A08803ACA00EC
:10108000D001CF01CE01CD01D8014D30D700570896
:1010900084008313581883177F30550780004C084D
:1010A000E8004B08E7004A08E6004908E5003B3045
:1010B000EC00AA30EB003830EA007F30E9008A11FA
:1010C00049218A157A08DA007908D9007808D80009
:1010D0007708D700DC015508DB00DB1BDC038A1135
:1010E0007C258A1583145A08EC005908EB0058082F
:1010F000EA005708E9007A08F0007908EF0078085C
:10110000EE007708ED008A11BE218A157A08CC001E
:101110007908CB007808CA007708C9007C30E8005D
:101120008830E7005930E6007230E5004C08EC00EA
:101130004B08EB004A08EA004908E9008A114921F6
:101140008A157A08DA007908D9007808D800770873
:10115000D70083105A08EC005908EB005808EA0041
:101160005708E900E030F0009730EF002630EE003D
:101170007530ED008A11BE218A157A08D4007908ED
:10118000D3007808D2007708D1005408E80053084B
:10119000E7005208E6005108E5004C08EC004B0857
:1011A000EB004A08EA004908E9008A1149218A153A
:1011B0007A08DA007908D9007808D8007708D700CB
:1011C00083105A08EC005908EB005808EA00570849
:1011D000E900C430F0001D30EF001E30EE00783022
:1011E000ED008A11BE218A157A08D4007908D3004F
:1011F0007808D2007708D1005408E8005308E700C7
:101200005208E6005108E5004C08EC004B08EB00E2
:101210004A08EA004908E9008A1149218A157A0832
:10122000DA007908D9007808D8007708D700831049
:101230005A08EC005908EB005808EA005708E90082
:101240005E30F0005030EF006330EE007A30ED0099
:101250008A11BE218A157A08D4007908D30078084B
:10126000D2007708D1005408E8005308E70052087C
:10127000E6005108E5004C08EC004B08EB004A087A
:10128000EA004908E9008A1149218A157A08DA003A
:101290007908D9007808D8007708D70083105A0851
:1012A000EC005908EB005808EA005708E9001A302A
:1012B000F000FE30EF007530EE007C30ED008A115A
:1012C000BE218A157A08D4007908D3007808D200A4
:1012D0007708D1005408E8005308E7005208E600F8
:1012E0005108E5004C08EC004B08EB004A08EA0006
:1012F0004908E9008A1149218A157A08DA00790833
:10130000D9007808D8007708D70083105A08EC0075
:101310005908EB005808EA005708E9001830F000B7
:101320007230EF003130EE007E30ED008A11BE21C8
:101330008A157A08D4007908D3007808D200770893
:10134000D1004C08E8004B08E7004A08E6004908CD
:10135000E5005408EC005308EB005208EA0051087D
:10136000E9008A1149218A158310EC01EB01EA0199
:101370007F30E9007A08F0007908EF007808EE0085
:101380007708ED008A11BE218A155008E8004F0841
:10139000E7004E08E6004D08E5007A08EC00790801
:1013A000EB007808EA007708E9008A1149218A15DC
:1013B0007A08D0007908CF007808CE007708CD00F1
:1013C000561CFA29E101E001DF017F30DE00500800
:1013D000E5004F08E4004E08E3004D08E2008A11E2
:1013E00060208A157A08D0007908CF007808CE00EE
:1013F0007708CD004D08F7004E08F8004F08F900B7
:101400005008FA0008003C08E8003B08E7003A08EA
:10141000E6003908E500EC01EB01EA01E9018A1177
:1014200021208A15031CEA2A4008C4003F08C30093
:101430003E08C2003D08C100C801C701C6017F3097
:10144000C5008A11C0248A157A08C4007908C3002F
:101450007808C2007708C1004408E8004308E700A4
:101460004208E6004108E500EC01EB01EA01E90170
:101470008A1121208A15031DEA2A4008C4003F086A
:10148000C3003E08C2003D08C100C801C701C60133
:101490008030C5008A11C0248A157A08C4007908F2
:1014A000C3007808C2007708C1004408E800430878
:1014B000E7004208E6004108E500EC01EB01EA0123
:1014C000E9018A1121208A15031DA72A3908C100C4
:1014D0003A08803AC2003B08C3003C08C400C80078
:1014E0004308C7004208C6004108C5008A11A1256B
:1014F0008A157A08C4007908C3007808C200770802
:10150000C1004408E8004308E7004208E60041083B
:10151000E5004008EC003F08EB003E08EA003D080B
:10152000E9008A1149218A157A08C4007908C300A4
:101530007808C2007708C1004408C8004308C70003
:101540004208C6004108C5000020852BE92A390859
:10155000C1003A08803AC2003B08C3003C08C400FE
:10156000C8004308C7004208C6004108C5008A11E8
:10157000A1258A157A08C4007908C3007808C2003A
:101580007708C1004408E8004308E7004208E60085
:101590004108E5004008EC003F08EB003E08EA0087
:1015A0003D08E9008A1149218A157A08C4007908A2
:1015B000C3007808C2007708C1004408C800430887
:1015C000C7004208C6004108C50000208030F80668
:1015D000852B852B3C08E8003B08E7003A08E6002D
:1015E0003908E500EC01EB01EA01E9018A1121204B
:1015F0008A15031C2A2B4008C4003F08C3003E087C
:10160000C2003D08C100C801C701C6017F30C50046
:101610008A11C0248A157A08C4007908C3007808A2
:10162000C2007708C1004408E8004308E700420808
:10163000E6004108E500EC01EB01EA01E9018A114D
:1016400021208A1503192A2BF701F801F901FA0163
:10165000852B852B3C08E8003B08E7003A08E600AC
:101660003908E500EC01EB01EA01E9018A112120CA
:101670008A15031D4E2B4008E8003F08E7003E088E
:10168000E6003D08E500EC01EB01EA01E9018A1101
:1016900021208A1503184E2B031D852B3C08C800FA
:1016A0003B08C7003A08C6003908C5008A11A125C1
:1016B0008A157A08C4007908C3007808C200770840
:1016C000C1004408E8004308E7004208E60041087A
:1016D000E5004008EC003F08EB003E08EA003D084A
:1016E000E9008A1149218A157A08C4007908C300E3
:1016F0007808C2007708C1004408C8004308C70042
:101700004208C6004108C50000208A150A12152C9F
:1017100003081F398300FF30B20083161F149F1483
:101720001F159F1107309C0083131F30850009147B
:10173000891409150030860087008312B2008316D1
:101740008800860183128601B20083168701831206
:1017500087018316880183128801B301831605145B
:101760008312AA010518AA0A2A08A2008316851462
:101770008312AB018518AB0A2B08A300831605154D
:101780008312AC010519AC0A2C08A4008316851538
:101790008312AD018519AD0A2D08A5008316051623
:1017A0008312AE01051AAE0A2E08A600831685160E
:1017B0008312AF01851AAF0A2F08A70083160914F8
:1017C0008312B0010918B00A3008A80083168914E2
:1017D0008312B1018918B10A3108A900B401340893
:1017E000073C031C512C2230340784008313000B68
:1017F0004F2CEA013408E9008A1104208A157A087E
:10180000B8007908B7007808B6007708B500BC01C1
:10181000BB01BA018030B9003808C0003708BF00EA
:101820003608BE003508BD00032A7A08B8007908DA
:10183000B7007808B6007708B500EA013308E90078
:101840008A1104208A15BA010408B9003A10831BD2
:101850003A1483107A08EC007908EB007808EA0063
:101860007708E9003808F0003708EF003608EE0086
:101870003508ED008A11BE218A15390884008313CA
:101880003A1883177A08E8007908E7007808E60034
:101890007708E5008A112A218A157808B300B40A6E
:1018A000EF2B3308B6006430B7008A1145278A153C
:1018B0007708B6000A30B7008A1145278A157708DD
:1018C000A0003308B6006430B7008A1145278A1596
:1018D0007708B6000A30B7008A1145278A157808BC
:1018E000A100A008031D7A2C831686013F308312C5
:1018F0008600D12C200B822C8316860106308312A1
:101900008600D12C2008023C031D8C2C83168601F6
:101910005B3083128600D12C2008033C031D962CDB
:10192000831686014F3083128600D12C2008043C98
:10193000031DA02C83168601663083128600D12CED
:101940002008053C031DAA2C831686016D308312E6
:101950008600D12C2008063C031DB42C831686017A
:101960007D3083128600D12C2008073C031DBE2C3D
:1019700083168601073083128600D12C2008083C8C
:10198000031DC82C831686017F3083128600D12C5C
:101990002008093C031DD12C831686016730831271
:1019A0008600A108031DDC2C0030B20083168701DD
:1019B0003F3083128700452D210BE62C0030B2000A
:1019C00083168701063083128700452D2108023CCB
:1019D000031DF22C0030B200831687015B308312A6
:1019E0008700452D2108033C031DFE2C0030B2006A
:1019F000831687014F3083128700452D2108043C50
:101A0000031D0A2D0030B200831687016630831251
:101A10008700452D2108053C031D162D0030B2001E
:101A2000831687016D3083128700452D2108063CFF
:101A3000031D222D0030B200831687017D308312F2
:101A40008700452D2108073C031D2E2D0030B200D4
:101A500083168701073083128700452D2108083C33
:101A6000031D3A2D0030B200831687017F308312A8
:101A70008700452D2108093C031D452D0030B2008B
:101A8000831687016730831287003308633C031C89
:101A90004F2D831688013F3083128800662D33084E
:101AA000633C03185D2D3308C73C031C5D2D831672
:101AB0008801063083128800662D3308C73C03185E
:101AC000662D831688015B3083128800AD2B63007E
:02400E00713F00
:00000001FF
;PIC16F877A
;CRC=5C48  CREATED="23-ene.-23 19:55"
