:100000000C308A00F32C0000CE3AED32F237A01EFD
:10001000A0126C3200000C003D30840083130008F5
:10002000031920280330F800F701F70B1528F80B07
:1000300014283C30F700F70B1B281E28800B1228D1
:100040000800440EF039F7000F30080577048800E7
:10005000000008142B282C280000081008000808AD
:10006000F700080E0F39F8000800831608108810F2
:100070000811831288100F3083160805F0388800A5
:10008000831208150000081400002F207808C4000F
:100090000810000008144C282F207808C30008100E
:1000A0000F308316080588008312440EF700F030E5
:1000B000F70577084304F8007808C300C31B3B2802
:1000C000411C881041188814000008110000081015
:1000D000420EC3000F30C3054308C400212042086C
:1000E0000F39C300C400212008002830B4000C30B0
:1000F000B5000130B6000630B700081088100811AE
:100100000F308316080588000810881008110F307A
:100110008312BD000C200130B3003308033C031CE4
:1001200099280330C40021200530BD000C20B30AFB
:100130008D280230C40021200530BD000C20B30101
:100140003308033C031CB028343033078400831386
:100150000008B800C1013808C2003520B30AA02841
:100160008A150A12012D8E30F7006808F80067081A
:10017000F900FA01F808031DC7287908F800F90109
:100180000830F702F808031DC728F701CF2803102D
:10019000F81BCE28F90DF80DF703C728F81308004F
:1001A0006408EB006808EB06EB1FDB280311031063
:1001B000E41B03140E296408EB006708EC006308D5
:1001C000EC020319E928EB1F0E290308013A83000A
:1001D0000E296808EC006408EC020319F528EB1FEF
:1001E0000E290308013A83000E296908EC0065080E
:1001F000EC0203190129EB1F0E290308013A8300C1
:100200000E296A08EC006608EC0203190D29EB1FA1
:100210000E290308013A83000E29031008005C0828
:100220000319D429E80060080319D429E802031C43
:100230001E297F30E8070318D42924298130E802D9
:10024000031CD4290319D4296808F700F801F9011F
:10025000FA01E7015D08E600E6175E08E5005F08C1
:10026000E4001930E8006308E4020318472901306C
:10027000E50203184729E60203184729E702031895
:100280004729E70AE60AE50A6308E40779296208CC
:10029000E502031862290130E60203186229E70229
:1002A00003186229E70AE60A6208E5076308E4071B
:1002B000031C7929E50A031D7929E60A031D79291A
:1002C000E70A792961088038E602031878290130A5
:1002D000E70203187829E70A61088038E607620810
:1002E000E507031C5629E60A031D5629E70A562985
:1002F0007A14E80B7C2987290310E40DE50DE60D3F
:10030000E70D0310FA0DF90DF80DE90D3329691CFD
:100310008F290310F80CF90CFA0CE90C9229F70359
:100320000319D429E91BBB290310E40DE50DE60DE3
:10033000E70D6308E4020318A7290130E50203185A
:10034000A729E6020318A729E702031CCA296208A5
:10035000E5020318B2290130E6020318B229E702C8
:10036000031CCA2961088038E6020318BB29013042
:10037000E702031CCA29FA0A031DCA29F90A031D48
:10038000CA29F80A031DCA29F70A0319D429F80C47
:10039000F90CFA0C5D08E8006108E806E81FD229AC
:1003A000F817D829F813D829F701F801F901FA014B
:1003B00008008E30F7006308F7026408F90065084A
:1003C000F800F917F7080319F0290310F908031DBD
:1003D000EC29F8080319F029F90CF80CF70BE529BA
:1003E000E41FF729F809F909F80A0319F90A0800BE
:1003F00063080319682AEB0067080319682AEB07EA
:100400000318092A7F30EB02031C682A0319682AA3
:100410000D2A8130EB070318682A6B08F700F801F2
:10042000F901FA016408EF00EF176508EE006608AD
:10043000ED001830EB00EC016D1C362A6A08FA0753
:10044000031C282AF90A031D282AF80A0319EC17A5
:100450006908F907031C2F2AF80A0319EC17680822
:10046000E500E5176508F8070318EC17EC0DF80C24
:10047000F90CFA0CEF0CEE0CED0C0310EB0B1B2A35
:100480000130F7070318682AF81B4D2AEF0DFA0D03
:10049000F90DF80DF7030319682AEF1F5E2AFA0A0F
:1004A000031D5E2AF90A031D5E2AF80A031D5E2A4F
:1004B000F80CF90CFA0CF70A0319682A6408EC0026
:1004C0006808EC06EC1F662AF8176C2AF8136C2AE9
:1004D000F701F801F901FA01080080308318EC06F1
:1004E000F101F2016808F0006C08F00667080319D2
:1004F0005D2BEF00F7006B080319662BEF02031961
:10050000022B031CC02A6C08F500F5176D08F400D7
:100510006E08F300F2010310F50CF40CF30CF20C6E
:10052000EF0B8A2AF01F972A71147A2B71106F1023
:1005300071166A30840083138F2B7112F01BAA2A64
:100540006F1CB52AF50CF40CF30CF20CF70A031926
:10055000752BB52AF51BB82A0310F20DF30DF40D17
:10056000F50DF7030319752BAA2A7117222B7113A6
:100570006808F000F01FBE2AF5176E2BF5136E2BDE
:100580006B08EF00F7006708EF026808F500F51741
:100590006908F4006A08F300F2010310F50CF40C8A
:1005A000F30CF20CEF0BCC2AF01FD92AF1147A2BA2
:1005B000F1106F10F1166E30840083138F2BF1123F
:1005C000F01BEC2A6F1CF72AF50CF40CF30CF20C60
:1005D000F70A0319752BF72AF51BFA2A0310F20DF7
:1005E000F30DF40DF50DF7030319752BEC2AF11734
:1005F000222BF1136C08F000F01F002BF5176E2B67
:10060000F5136E2B6C08F500F5176D08F4006E08F5
:10061000F300F01F0F2BF51371157A2B7111F201F6
:100620006F106A30840083138F2BF01B382B6808FF
:10063000F0006F1C222BF50CF40CF30CF20CF70AF3
:100640000319752BF21F332BF30A031D332BF40A06
:10065000031D332BF50A031D332BF50CF40CF30C9F
:10066000F70A0319752B711BB72AF11BF92A572BAF
:100670008030F506F51F402B7A2B6C08F0004D2BCF
:100680006808F000F508031D4D2BF408031D4D2BE1
:10069000F308031D4D2BF7016E2BF51B572B031091
:1006A000F20DF30DF40DF50DF70B4D2B752BF01F1F
:1006B0005B2BF5176E2BF5136E2B6B08F7006C0890
:1006C000F5006D08F4006E08F3006E2B6708F70064
:1006D0006808F5006908F4006A08F3007508F80076
:1006E0007408F9007308FA00AD2BF701F801F9015D
:1006F000FA01AD2BF201F309F409F509F209F20A46
:10070000031D882BF30A031D882BF40A0319F50A2D
:100710007118962AF118D82A71190E2B3D2B000852
:10072000F307031C992BF40A031D992BF50A0319EF
:100730006F1484030008F407031CA12BF50A0319A6
:100740006F1484030008801F803AF50703186F14A4
:10075000711A9D2AF11ADF2A152B0800621056081B
:10076000DB005508DA005408D9005308D8005608B1
:10077000E6005508E5005408E4005308E300EA01E8
:10078000E901E801E701D020031CCA2B62145908D3
:10079000803AD9005B08E6005A08E5005908E400F1
:1007A0005808E300EA01E901E8018E30E700D020B3
:1007B0000318DC2B031DF32B5B08E6005A08E50049
:1007C0005908E4005808E300D9217908E8007808BE
:1007D000E700B3207A08DF007908DE007808DD0042
:1007E0007708DC00B02C5B08E6005A08E5005908E1
:1007F000E4005808E3008030EA009630E900183041
:10080000E8009630E700D020031CA82C5B08E60027
:100810005A08E5005908E4005808E300EA01E90134
:10082000E8017030E700F8217A08E6007908E50071
:100830007808E4007708E300D9217908E100780816
:10084000E0005B08E6005A08E5005908E400580893
:10085000E300EA01E901E8017030E700F8217A08D5
:10086000E6007908E5007808E4007708E30061080D
:10087000E8006008E700B32083146608EA00650812
:10088000E9006408E8006308E7007A08EE007908E8
:10089000ED007808EC007708EB006D22E601E50139
:1008A000E4018E30E3007A08EA007908E90078086C
:1008B000E8007708E700F8217A08DB007908DA0019
:1008C0007808D9007708D8006108E8006008E700D8
:1008D000B320E601E501E4018E30E3007A08EA0086
:1008E0007908E9007808E8007708E700F8217A0835
:1008F000DF007908DE007808DD007708DC005B089F
:10090000E6005A08E5005908E4005808E300D92138
:100910007908E8007808E700B32083105F08EA0050
:100920005E08E9005D08E8005C08E7007A08EE0070
:100930007908ED007808EC007708EB006D227A0862
:10094000DF007908DE007808DD007708DC00B02CD5
:100950005B08DF005A08DE005908DD005808DC009B
:100960005B08E6005A08E5005908E4005808E3006F
:10097000D9217908E8007808E700B32083145B08E0
:10098000EA005A08E9005908E8005808E7007A0820
:10099000EE007908ED007808EC007708EB006D2296
:1009A0007A08DB007908DA007808D9007708D800DF
:1009B000621CDD2C5D08803ADD005B08E6005A0809
:1009C000E5005908E4005808E300EA01E901E801FC
:1009D000E701D0200319232D621C082DD708031D21
:1009E000082D83145F08EA005E08E9005D08E8004E
:1009F0005C08E700EE01ED01EC017F30EB006D22B9
:100A00007A08DF007908DE007808DD007708DC006E
:100A10006218232D570B232D83105F08EA005E0810
:100A2000E9005D08E8005C08E700EE01ED01EC017B
:100A30007F30EB006D227A08DF007908DE0078084D
:100A4000DD007708DC005608E6005508E50054088C
:100A5000E4005308E300EA01E901E801E701D020DE
:100A6000031D362DDF01DE01DD01DC015C08F7002E
:100A70005D08F8005E08F9005F08FA000800460803
:100A8000E6004508E5004408E4004308E300EA0105
:100A9000E901E801E701D0200319FA2D4208DF003F
:100AA0004108DE004008DD003F08DC004608E300A6
:100AB0004508E2004408E1004308E0000F217A08FD
:100AC000CE007908CD007808CC007708CB004E081E
:100AD000E6004D08E5004C08E4004B08E300EA019D
:100AE000E901E801E701D020031CA32D4208DF0043
:100AF0004108DE004008DD003F08DC004608E30056
:100B00004508E2004408E1004308E0000F217A08AC
:100B1000CE007908CD007808CC007708CB004E08CD
:100B2000D2004D08D1004C08D0004B08CF0052082D
:100B3000D6005108D5005008D4004F08D30001302A
:100B4000D700AE23CE2D4208DF004108DE0040086A
:100B5000DD003F08DC004608E3004508E2004408E9
:100B6000E1004308E0000F217A08CE007908CD00AB
:100B70007808CC007708CB004E08D2004D08D10091
:100B80004C08D0004B08CF005208D6005108D500C1
:100B90005008D4004F08D300D701AE237A08CA000A
:100BA0007908C9007808C8007708C7004A08E60035
:100BB0004908E5004808E4004708E3004608EA0061
:100BC0004508E9004408E8004308E700F8218314D9
:100BD0004208EA004108E9004008E8003F08E70051
:100BE0007A08EE007908ED007808EC007708EB0051
:100BF0006D22FA2D08008E30F7005A08F8005908C7
:100C0000F900FA01DA1F092EF809F909F90A03199E
:100C1000F80AF808031D162E7908F800F9010830C3
:100C2000F702F808031D162EF7011F2E0310F81BFC
:100C30001D2EF90DF80DF703162EDA1FF813080014
:100C40004608CA004508C9004408C8004308C70050
:100C50004A08E6004908E5004808E4004708E300C0
:100C6000EA01E901E8017F30E700D0200319B72F3E
:100C7000D9014730D80058088400831359188317C6
:100C80007E30800083144A08EA004908E9004808D9
:100C9000E8004708E700EE01ED01EC017F30EB00D2
:100CA0006D227A08DB007908DA007808D900770825
:100CB000D80083104A08EA004908E9004808E8001B
:100CC0004708E700EE01ED01EC017F30EB006D22FB
:100CD0005B08DF005A08DE005908DD005808DC0018
:100CE0007A08E3007908E2007808E1007708E0007C
:100CF0000F217A08CA007908C9007808C800770867
:100D0000C7004A08E6004908E5004808E40047082B
:100D1000E3004A08EA004908E9004808E8004708F3
:100D2000E700F8217A08D6007908D5007808D400C1
:100D30007708D3009930E6004730E5008A30E400B8
:100D40007F30E3005608EA005508E9005408E8003F
:100D50005308E700F8217A08DB007908DA00780800
:100D6000D9007708D80083107A08EA007908E900EA
:100D70007808E8007708E700EE01ED01EC0180302B
:100D8000EB006D227A08CE007908CD007808CC00FF
:100D90007708CB004C30E600F330E5003A30E40051
:100DA0007B30E3005608EA005508E9005408E800E3
:100DB0005308E700F8217A08DB007908DA007808A0
:100DC000D9007708D80083107A08EA007908E9008A
:100DD0007808E8007708E7002B30EE009D30ED0042
:100DE000DF30EC007E30EB006D227A08D20079080B
:100DF000D1007808D0007708CF005208E6005108EB
:100E0000E5005008E4004F08E3005608EA005508E2
:100E1000E9005408E8005308E700F8217A08DB00ED
:100E20007908DA007808D9007708D80083107A08A2
:100E3000EA007908E9007808E8007708E700EE01A1
:100E4000ED01EC017F30EB006D227A08D2007908C9
:100E5000D1007808D0007708CF004A08E60049089A
:100E6000E5004808E4004708E3004E08EA004D08A2
:100E7000E9004C08E8004B08E700F8217A08DB009D
:100E80007908DA007808D9007708D8007A08DF00F6
:100E90007908DE007808DD007708DC005208E300FE
:100EA0005108E2005008E1004F08E0000F217A08E5
:100EB000CE007908CD007808CC007708CB00D901A6
:100EC0004330D800580884008313591883177E30A4
:100ED0000002D700D71F7D2F5708003CDA01D90048
:100EE000D91BDA03FB257708CF007808803AD000B9
:100EF0007908D1007A08D2008B2FDA015708D9007F
:100F0000D91BDA03FB257A08D2007908D1007808CA
:100F1000D0007708CF005208E6005108E5005008DD
:100F2000E4004F08E3001830EA007230E900313085
:100F3000E8007E30E700F82183104E08EA004D08F3
:100F4000E9004C08E8004B08E7007A08EE00790851
:100F5000ED007808EC007708EB006D227A08CE00EF
:100F60007908CD007808CC007708CB00BB2FCE01E4
:100F7000CD01CC01CB014B08F7004C08F8004D081F
:100F8000F9004E08FA0008003E0BC72FCA2F403068
:100F9000BF00CB2FBF0101303D02BF073F088038A3
:0C0FA000C000C1014008C200352008005C
:101000004608E6004508E5004408E4004308E3001C
:101010003B30EA00AA30E9003830E8007F30E700D2
:101020008A11F8218A157A08E6007908E50078081F
:10103000E4007708E3008A11D9218A157808D300E3
:1010400054104608CA004508C9004408C8004308AF
:10105000C7004608E6004508E5004408E4004308E8
:10106000E300EA01E901E801E7018A11D0208A15CD
:10107000031C40285414D309D30A4808803AC800F6
:10108000CE01CD01CC01CB01D6014B30D5005508A6
:1010900084008313561883177F30530780004A0853
:1010A000E6004908E5004808E4004708E3003B3053
:1010B000EA00AA30E9003830E8007F30E7008A1102
:1010C000F8218A157A08D8007908D7007808D60060
:1010D0007708D500DA015308D900D91BDA038A1141
:1010E000FB258A1583145808EA005708E9005608BA
:1010F000E8005508E7007A08EE007908ED00780866
:10110000EC007708EB008A116D228A157A08CA0074
:101110007908C9007808C8007708C7007C30E60065
:101120008830E5005930E4007230E3004A08EA00F4
:101130004908E9004808E8004708E7008A11F82153
:101140008A157A08D8007908D7007808D600770879
:10115000D50083105808EA005708E9005608E8004F
:101160005508E700E030EE009730ED002630EC0047
:101170007530EB008A116D228A157A08D200790841
:10118000D1007808D0007708CF005208E600510857
:10119000E5005008E4004F08E3004A08EA00490867
:1011A000E9004808E8004708E7008A11F8218A1595
:1011B0007A08D8007908D7007808D6007708D500D3
:1011C00083105808EA005708E9005608E800550857
:1011D000E700C430EE001D30ED001E30EC0078302A
:1011E000EB008A116D228A157A08D2007908D100A5
:1011F0007808D0007708CF005208E6005108E500D3
:101200005008E4004F08E3004A08EA004908E900F2
:101210004808E8004708E7008A11F8218A157A088B
:10122000D8007908D7007808D6007708D500831051
:101230005808EA005708E9005608E8005508E70092
:101240005E30EE005030ED006330EC007A30EB00A1
:101250008A116D228A157A08D2007908D10078089F
:10126000D0007708CF005208E6005108E50050088A
:10127000E4004F08E3004A08EA004908E90048088A
:10128000E8004708E7008A11F8218A157A08D80093
:101290007908D7007808D6007708D5008310580859
:1012A000EA005708E9005608E8005508E7001A3038
:1012B000EE00FE30ED007530EC007C30EB008A1162
:1012C0006D228A157A08D2007908D1007808D000FA
:1012D0007708CF005208E6005108E5005008E40006
:1012E0004F08E3004A08EA004908E9004808E80016
:1012F0004708E7008A11F8218A157A08D80079088A
:10130000D7007808D6007708D50083105808EA007F
:101310005708E9005608E8005508E7001830EE00C5
:101320007230ED003130EC007E30EB008A116D221E
:101330008A157A08D2007908D1007808D000770899
:10134000CF004A08E6004908E5004808E4004708DD
:10135000E3005208EA005108E9005008E8004F088D
:10136000E7008A11F8218A158310EA01E901E801F2
:101370007F30E7007A08EE007908ED007808EC008D
:101380007708EB008A116D228A154E08E6004D0899
:10139000E5004C08E4004B08E3007A08EA0079080D
:1013A000E9007808E8007708E7008A11F8218A1533
:1013B0007A08CE007908CD007808CC007708CB00F9
:1013C000541CFA29DF01DE01DD017F30DC004E080C
:1013D000E3004D08E2004C08E1004B08E0008A11F0
:1013E0000F218A157A08CE007908CD007808CC0044
:1013F0007708CB004B08F7004C08F8004D08F900BF
:101400004E08FA0008003A08E6003908E5003808F6
:10141000E4003708E300EA01E901E801E7018A1185
:10142000D0208A15031CEA2A3E08C2003D08C100EC
:101430003C08C0003B08BF00C601C501C4017F30A5
:10144000C3008A113F258A157A08C2007908C100B5
:101450007808C0007708BF004208E6004108E500B0
:101460004008E4003F08E300EA01E901E801E70180
:101470008A11D0208A15031DEA2A3E08C2003D08C1
:10148000C1003C08C0003B08BF00C601C501C40143
:101490008030C3008A113F258A157A08C200790876
:1014A000C1007808C0007708BF004208E600410884
:1014B000E5004008E4003F08E300EA01E901E80133
:1014C000E7018A11D0208A15031DA72A3708BF001B
:1014D0003808803AC0003908C1003A08C200C60086
:1014E0004108C5004008C4003F08C3008A112026F7
:1014F0008A157A08C2007908C1007808C000770808
:10150000BF004208E6004108E5004008E4003F084B
:10151000E3003E08EA003D08E9003C08E8003B081B
:10152000E7008A11F8218A157A08C2007908C100FB
:101530007808C0007708BF004208C6004108C5000F
:101540004008C4003F08C3000020852BE92A370863
:10155000BF003808803AC0003908C1003A08C2000C
:10156000C6004108C5004008C4003F08C3008A11F6
:1015700020268A157A08C2007908C1007808C000C0
:101580007708BF004208E6004108E5004008E40093
:101590003F08E3003E08EA003D08E9003C08E80097
:1015A0003B08E7008A11F8218A157A08C2007908F9
:1015B000C1007808C0007708BF004208C600410893
:1015C000C5004008C4003F08C30000208030F80672
:1015D000852B852B3A08E6003908E5003808E40039
:1015E0003708E300EA01E901E801E7018A11D020A8
:1015F0008A15031C2A2B3E08C2003D08C1003C0886
:10160000C0003B08BF00C601C501C4017F30C30054
:101610008A113F258A157A08C2007908C100780826
:10162000C0007708BF004208E6004108E500400816
:10163000E4003F08E300EA01E901E801E7018A115B
:10164000D0208A1503192A2BF701F801F901FA01B4
:10165000852B852B3A08E6003908E5003808E400B8
:101660003708E300EA01E901E801E7018A11D02027
:101670008A15031D4E2B3E08E6003D08E5003C0898
:10168000E4003B08E300EA01E901E801E7018A110F
:10169000D0208A1503184E2B031D852B3A08C6004F
:1016A0003908C5003808C4003708C3008A1120264D
:1016B0008A157A08C2007908C1007808C000770846
:1016C000BF004208E6004108E5004008E4003F088A
:1016D000E3003E08EA003D08E9003C08E8003B085A
:1016E000E7008A11F8218A157A08C2007908C1003A
:1016F0007808C0007708BF004208C6004108C5004E
:101700004008C4003F08C30000208A150A12722D49
:101710003C08073A0319962B0B3A03199D2B063AFE
:101720000319A92B023A0319B12BB82B0130BD00C4
:10173000BE008A11C4278A15BF2BC1010130C20027
:101740008A1135208A150230BD008A110C208A15B5
:10175000BF2B0130BD000230BE008A11C4278A159C
:10176000BF2BC1011030C2008A1135208A15BF2B52
:101770000130C1003C08C2008A1135208A150800DA
:101780000B08B4008B13831603178C170C1400007E
:10179000000083120313B41B8B170318F72B0317D6
:1017A0000C087F390313B40003170D080313B500A9
:1017B00003170F080313B6003408BC00882335084C
:1017C00003178D000313360803178F0003130B084C
:1017D000B7008B13831603178C170C14000000003E
:1017E00083120313B71B8B17B30BF72B162C03179E
:1017F0000C0D0E0D7F390313B40003170D080313EE
:10180000B50003170F080313B6003408BC00882383
:10181000350803178D000313360803178F008D0A50
:1018200003198F0A03100313B30BC02B8A150A1276
:10183000BB2DBB010408BA003B10831B3B14B41F33
:10184000292CBA173A1EBA0AB309B409B30A031904
:10185000B40A340EF038B600B607E23EB700323EA6
:10186000B90034080F39B707B707B907E93EB80020
:10187000B807B807330E0F39B807B907B80DB90D57
:10188000B909B90D33080F39B907B60D0730B500DE
:101890000A30B907B803031C492CB807B703031C67
:1018A0004D2CB707B603031C512CB607B503031C18
:1018B000552C35308400831307303A053A138403DE
:1018C0003A05031D6A2C3A1A840A3A1A6A2C203007
:1018D000F700872C84073930040203193A170008EF
:1018E000F700031D7B2C3A1B7B2C3A1A952CBA1956
:1018F0007B2C2030862CBA1F832C2D30F7008403DC
:101900003A13BA13872CBA153A123030F707B401DC
:101910000408B3003410831B34147708BC008823F8
:1019200033088400831334188317840A3A1F6B2CFE
:101930008A150A12C22D0B08B3008B1383160317E6
:101940008C170C140000000083120313B31B8B17B9
:1019500003170C087F390319EF2C0313B300031787
:101960000D080313B40003170F080313B500330861
:10197000BC008823340803178D00031335080317B0
:101980008F0003130B08B6008B13831603178C17F5
:101990000C140000000083120313B61B8B170317EF
:1019A0000C0D0E0D7F390319EF2C0313B300031731
:1019B0000D080313B40003170F080313B500330811
:1019C000BC008823340803178D0003133508031760
:1019D0008F008D0A03198F0A03139B2C031703131F
:1019E0008A150A12CE2D03081F39830083161F148F
:1019F0009F141F159F1107309C0083138A118312B7
:101A000075288A1500308316850009108910091180
:101A10008312B101B001831605148312A8010518C1
:101A2000A80A2808A000831685148312A901851826
:101A3000A90A2908A100831605158312AA01051910
:101A4000AA0A2A08A200831685158312AB018519FC
:101A5000AB0A2B08A300831605168312AC01051AE6
:101A6000AC0A2C08A400831685168312AD01851AD2
:101A7000AD0A2D08A500831609148312AE010918BA
:101A8000AE0A2E08A600831689148312AF018918A6
:101A9000AF0A2F08A700B2013208073C031CB12D82
:101AA0002030320784008313000BAF2DE801320889
:101AB000E7008A11B3208A157A08B6007908B500C4
:101AC0007808B4007708B300BA01B901B8018030D2
:101AD000B7007A08BE007908BD007808BC00770816
:101AE000BB00032A7A08B6007908B5007808B4006C
:101AF0007708B3003108E8003008E7008A11B32006
:101B00008A15B8010408B7003810831B38148310F5
:101B10007A08EA007908E9007808E8007708E70021
:101B20003608EE003508ED003408EC003308EB0011
:101B30008A116D228A153708840083133818831799
:101B40007A08E6007908E5007808E4007708E30001
:101B50008A11D9218A157908B1007808B000B20A33
:101B60004C2D043003178D0000308F000310093016
:101B70000313B300C02B103084003108B4003008C8
:101B8000B300192C3230BD008A110C208A150B309D
:101B900003178D0000308F0003139B2C092D630069
:02400E00713F00
:00000001FF
;PIC16F877A
;CRC=202B  CREATED="02-feb.-23 13:43"
